:020000020000FC
:1000000058E05EBF5FE55DBF40EF41BBD09AD19A3B
:10001000D29AD39AD49AD59AD69AD79AB89AB99AA4
:10002000BA9ABB9ABC9ABD9ABE9ABF9AA09AA19A54
:10003000A29AA39AA49AA59AA69A0E9487010E94BE
:1000400008030E94810115E40E94AF011EE60E9490
:10005000AF0114E70E94AF0115E60E94AF0112E75D
:100060000E94AF0110E20E94AF0110E50E94AF01B3
:1000700011E60E94AF0113E70E94AF0113E70E944F
:10008000AF0117E70E94AF011FE60E94AF0112E720
:100090000E94AF0114E60E94AF010E949A03A3E000
:1000A0001A2F0E9417030E9420010E945E019130C6
:1000B00059F0A13011F00E946600AA9589F71A2F15
:1000C0000E9417030E94A8000E94FE000E94C40123
:1000D0000E94A60115E40E94AF011EE60E94AF0136
:1000E00014E70E94AF0115E60E94AF0112E70E94DB
:1000F000AF0110E20E94AF0110E50E94AF0111E6CE
:100100000E94AF0113E70E94AF0113E70E94AF0105
:1001100017E70E94AF011FE60E94AF0112E70E949D
:10012000AF0114E60E94AF010E94B80111E40E94E1
:10013000AF0117E60E94AF0111E60E94AF0119E678
:100140000E94AF011EE60E94AF010E94C401089503
:100150000E94C4010E94A60119E50E94AF011FE69A
:100160000E94AF0115E70E94AF0112E70E94AF01A4
:1001700010E20E94AF0111E60E94AF0114E70E9455
:10018000AF0114E70E94AF0115E60E94AF011DE622
:100190000E94AF0110E70E94AF0114E70E94AF0177
:1001A0000E94B80118E60E94AF0111E60E94AF015B
:1001B00013E70E94AF0110E20E94AF0115E40E9414
:1001C000AF0118E70E94AF0110E70E94AF0119E6E6
:1001D0000E94AF0112E70E94AF0115E60E94AF0135
:1001E00014E60E94AF01DB9ADD9A0E94C401DB98FD
:1001F0000E94C401F8CF0C941F0108950E94A6012B
:1002000013E40E94AF011FE60E94AF0112E70E94B3
:10021000AF0112E70E94AF0115E60E94AF0113E69D
:100220000E94AF0114E70E94AF01DC9ADE9ADF98CA
:100230000E94C401DE98DF98DC9A01C00895FFCFC8
:100240000E94A60170E00E94CF014332A1F1042F69
:100250007395142F0E94AF010E94CF01433259F1D0
:10026000B42F7395142F0E94AF010E94CF01433227
:1002700011F1642F7395142F0E94AF010E94CF01DA
:100280004332C9F0C42F7395142F0E94AF010E940E
:10029000CF01433281F0D42F7395142F0E94AF0108
:1002A0000E94CF01433239F07395142F0E94AF01A1
:1002B0000C94500108950E94A601FCCF85E090E0C7
:1002C000781761F4013351F4B23341F4633331F4FC
:1002D000C43321F4D53311F491E008950E94A601AE
:1002E00015E40E94AF0112E50E94AF0112E50E94E1
:1002F000AF011FE40E94AF0112E50E94AF0190E040
:10030000ECCFDB98DC98DD98DE98DF9808951FEF3E
:1003100017BBD09AD19AD29A0E94C40118E30E94C6
:100320009E010E9416021CE00E949E010E9416027D
:1003300011E00E949E010E94BC010895D898D998AE
:1003400018BBDA9A0E94BC01DA980895D898D99817
:1003500011E018BBDA9A0E94BC01DA980895D89A85
:10036000D99818BBDA9A0E94BC01DA9808950895CA
:1003700010EC0E949E0108952AEF30E100003A95AA
:10038000E9F72A95D1F708952AEF3AEF40E1000006
:100390004A95E9F73A95D1F72A95C9F708954FE0BC
:1003A00042BB000050B35F705F30D9F7000050B31C
:1003B0005F705F30D9F30E94210250B35F705F30ED
:1003C000A9F35FE752BB000050B35F705F30A9F440
:1003D0005FEB52BB000050B35F705F3089F45FED9C
:1003E00052BB000050B35F705F3069F45FEE52BBE8
:1003F000000050B35F705F3049F4E0E0F6E009C000
:10040000E4E0F6E006C0E8E0F6E003C0ECE0F6E089
:1004100000C0569510F44591FCCF4491089500001A
:100420000000000000000000000008950F932F93CB
:1004300004E620EA2A95F1F70A95D9F72F910F9152
:1004400008954F935F935FEF4FEF4A95F1F75A95F9
:08045000D9F75F914F91089567
:100600004142434433363923323538303134372A86
:10061000A09AA19AA29AA39AA49AA59AA69AA89AED
:10062000A99AAA9AAB9AAC9AAD9AAE9A089529E083
:100630002117D9F028E02117C9F027E02117B9F0D8
:1006400026E02117A9F025E0211799F024E02117D1
:1006500089F023E0211779F022E0211769F021E0E9
:10066000211759F020E0211749F009C011C019C025
:1006700021C029C031C039C041C049C051C0A8986B
:10068000A998AA98AB98AD98AE98AC9A0C94990397
:10069000A898A998AA98AB98AC98AD98AE980C94E5
:1006A0009903A898A998AA98AB9AAC9AAD9AAE9AD1
:1006B0000C949903A898AD98AC98AB98AA98AE986A
:1006C000A99A0C949903A898AD98AE98AA98AB985B
:1006D000A99AAC9A0C949903AD98AE98A998AA9847
:1006E000A89AAC9AAB9A0C949903A898A998AE983A
:1006F000AA98AB98AD9AAC9A0C949903A898A9982B
:10070000AE98AC98AB98AD9AAA9A0C949903A99814
:10071000AA98A89AAB9AAC9AAD9AAE9A0C949903FF
:10072000A898A998AA98AB98AC98AD98AE9A0C9452
:10073000990308952FEF3FEF4BE700004A95E9F743
:0A0740003A95D1F72A95C9F70895FC
:00000001FF
